:020000040800F2
:10000000E805002045010008A71700080D160008A4
:10001000A5170008B1010008711C000800000000CD
:10002000000000000000000000000000CB170008E6
:10003000F701000800000000C9170008CD170008EC
:100040005F0100085F0100085F0100085F01000810
:100050005F0100085F0100085F0100085F01000800
:100060005F0100085F0100085F0100085F010008F0
:100070005F0100085F010008B5010008C101000828
:100080005F0100085F0100085F0100085F010008D0
:100090005F0100085F0100085F0100085F010008C0
:1000A0005F0100088D1800085F0100085F0100086B
:1000B00099180008A51800085F0100085F010008F2
:1000C0005F0100085F0100085F0100085F01000890
:1000D0005F0100085F0100085F0100085F01000880
:1000E0005F0100085F0100085F0100085F01000870
:1000F0005F0100085F0100085F0100085F01000860
:100100005F0100085F0100085F0100085F0100084F
:100110005F0100085F0100085F0100085F0100083F
:100120005F0100085F0100085F0100085F0100082F
:10013000DFF80CD000F02AF800480047951C0008B2
:10014000E80500200648804706480047FEE7FEE72E
:10015000FEE7FEE7FEE7FEE7FEE7FEE7FEE7FEE777
:100160004518000831010008D2B201E000F8012B67
:10017000491EFBD270470022F6E710B513460A4627
:1001800004461946FFF7F0FF204610BD064C074D08
:1001900006E0E06840F0010394E807009847103457
:1001A000AC42F6D3FFF7C8FF701D0008901D000891
:1001B000FEE70000014800F01FB80000A401002085
:1001C000014800F019B800006001002030B590F837
:1001D00040500124AC40C56B6C60046863604368A8
:1001E000102B036803D099600068C26030BD9A602C
:1001F0000068C16030BD70472DE9F05FC16B0A68CF
:1002000001680B68046C4FF0040808FA04F8844D88
:10021000844E854FDFF814C2DFF81492DFF814A281
:10022000DFF814B2DFF814E218EA020F65D05FEAD3
:10023000437862D50A68920603D40A6822F0040261
:100240000A60DFF8F0814FF48062016808F1140859
:1002500013011402414524D9A9420DD0B1420FD057
:10026000B9421AD0614515D0494515D0514501D143
:10027000120312E0594501D104220EE0714501D16B
:1002800040220AE06D4D1435A94206D06B4A28324F
:10029000914201D11A4600E022466749091F0A60CF
:1002A00029E0A94213D0B14215D0B94220D061450E
:1002B0001BD049451BD0514502D14FF4800217E0B5
:1002C000414502D14FF0806212E0594501D104222C
:1002D0000EE0714501D140220AE0584D1435A94283
:1002E00006D0564A2832914201D11A4600E02246F1
:1002F0004B4908394A60C16A71E04FF0020808FAB8
:1003000004F818EA020F70D05FEA83786DD50A68A6
:10031000920606D40A6822F00A020A60012180F8D7
:100320002110DFF810814FF40072016808F1140801
:1003300013011402414524D9A9420DD0B1420FD076
:10034000B9421AD0614515D0494515D0514501D162
:10035000120312E0594501D102220EE0714501D18C
:1003600020220AE0354D1435A94206D0334A2832FE
:10037000914201D11A4600E022462F49091F0A6026
:1003800029E0A94213D0B14215D0B94220D061452D
:100390001BD049451BD0514502D14FF4001217E044
:1003A000414502D14FF0007212E0594501D10222BD
:1003B0000EE0714501D120220AE0204D1435A942FA
:1003C00006D01E4A2832914201D11A4600E0224648
:1003D000134908394A60002180F82010816A0029F9
:1003E0001CD0BDE8F05F0847FFE70825A54015428F
:1003F00014D01A0712D50A6822F00E020A6090F88B
:100400004020C36B012101FA02F25A60816380F837
:100410002110002180F82010016BE0E7BDE8F09F7B
:10042000080002401C00024030000240440002402C
:10043000580002406C000240080402401C040240C4
:1004400030B560B11C4A03681421934209D21B4A9B
:100450001A44B2FBF1F18900016419490AE0012054
:1004600030BD154A52421A44B2FBF1F189000164D1
:1004700011490839C163022180F821101A6843F636
:10048000F0718A43F0E901142143D0E902452C437D
:100490002143046921434469214384692143114371
:1004A0001960002141628162C162016341630122DE
:1004B00042770177084630BD08040240F8FFFDBFCF
:1004C0000000024070B5044690F820000025012885
:1004D0000CD0012084F8200094F821600020012E27
:1004E00006D084F820000225284670BD022070BD89
:1004F000022684F82160A0632068066826F00106C1
:1005000006602046FFF762FEE06A00282068016866
:1005100002D041F00E0106E021F0040101602068E4
:10052000016841F00A0101602068016841F00101A1
:100530000160D9E731B500F009F9009C0546601C5F
:1005400000D0641C00F002F9401BA042FAD338BD71
:100550002DE9F84FDFF8B8A100220AF1040B144688
:1005600001274FF00F090BF1040E00BF0B6807FACB
:1005700004F52B40AB4274D1DFF898C14E68A6EB6E
:100580000C0866452BD00DDC032E34D005DC36B3C9
:10059000012E19D0022E2FD11BE0112E16D0122EB3
:1005A0002AD119E0B8F5881F19D006DCB8F5803FCC
:1005B00015D0B8F5801F1FD111E0B8F5001F0ED07F
:1005C000B8F5041F18D10AE0CA6815E0CA68121D00
:1005D00012E0CA6808320FE0CA680C320CE08A6880
:1005E0002AB1012A4FF0080203D0456104E0042239
:1005F00002E0056100E00022FF2B01D8064601E081
:1006000000F104064FEA840501D9A5F12005D6F8CA
:1006100000C009FA05F82CEA080C02FA05F54CEAC4
:10062000050CC6F800C04D68ED006AD53A4DAE69BC
:1006300046F00106AE61AD6924F0030605F0010540
:100640000095364D06EB050CDCF80850A6074FEA7E
:10065000167809FA08F6B543314EB04202D10026A9
:100660001AE04EE02F4EB04201D1012614E02E4E8A
:10067000B04201D102260FE02C4EB04201D1032638
:100680000AE02B4EB04201D1042605E0294EB042CB
:1006900001D1052600E0062606FA08F62E43CCF81E
:1006A00008604D68DAF80060ED03554601D51E4339
:1006B00000E09E432E604D68AD0305D5DBF8006079
:1006C0001E43CBF8006004E0DBF800509D43CBF8FC
:1006D00000504D68DEF80060ED02754601D51E43FE
:1006E00000E09E432E604D68AD0205D5084D0C35E7
:1006F0002E681E432E6004E0054E0C3635689D437F
:100700003560641C102CFFF431AFBDE8F88F000099
:1007100000040140000011100010024000000140E0
:1007200000080140000C014000100140001401408D
:1007300000180140001C01408068084000D00120E2
:1007400070470AB1016170470904FBE7014800687E
:10075000704700005800002002480168491C0160F1
:100760007047000058000020074810B5016841F0AC
:1007700010010160032000F08BF8002000F006F863
:1007800000F018F8002010BD0020024010B504460B
:1007900007484FF47A710068B0FBF1F000F01FFBDE
:1007A00000222146501E00F053F8002010BD00002A
:1007B0005C0000201E4808B5816941F0010181619B
:1007C000806900F001000090052000F061F800222F
:1007D00011466FF00B0000F03BF8002211466FF05D
:1007E0000A0000F035F8002211466FF0090000F011
:1007F0002FF800221146501F00F02AF8002211465F
:10080000101F00F025F800221146901E00F020F87D
:1008100000221146501E00F01BF80648416821F0E6
:10082000E0614160416841F00071416008BD000035
:10083000001002400000014000F01F020121914021
:100840004009800000F1E020C0F80011704700006E
:10085000F0B40E4B1B680C46C3F30223C3F107052B
:10086000042D00D90425191D072901D2002300E019
:10087000DB1E012606FA05F1491E214099409E40E3
:10088000761E16403143F0BC00F08EBF0CED00E048
:10089000064900F0070208684FF6FF03184040EAD7
:1008A0000220034A10430860704700000CED00E08E
:1008B0000000FA052DE9F047DFF83C8105460E46B9
:1008C000D8F8000000F00700B0420CD2D8F80010B1
:1008D00021F007013143C8F80010D8F8000000F0FB
:1008E0000700B04263D12878444C800705D5606882
:1008F000A96820F0F000084360602878C00745D060
:100900006868012816D02168022816D089070029B6
:100910004DDA616821F0030101436160FFF716FFC2
:100920006968074641F2883001290FD002298146C3
:1009300019D027E021688903E9E78901E7E700BFCB
:10094000FFF704FFC11B494501D918E081466068E3
:10095000C0F381000128F3D118E000BFFFF7F6FED5
:10096000C11B49450BD86068C0F381000228F5D14E
:100970000CE000BFFFF7EAFEC11B494502D9032086
:10098000BDE8F087606810F00C0FF3D1D8F80010C4
:10099000404601F00701B1420BD9016821F007017F
:1009A00031430160006800F00700B04201D001202F
:1009B000E6E72878400705D56068E96820F4E0603C
:1009C000084360602878000706D56068296920F42C
:1009D000605040EAC100606000F03CF86168084A7D
:1009E000C1F30311515CC840064908600020FFF7BD
:1009F000CDFE0020C4E700000020024000100240AD
:100A0000581D00085C000020014800687047000085
:100A10005C0000200448054900684968044AC1F3A5
:100A20000221515CC84070475C0000200010024069
:100A3000681D00080448054900684968044AC1F374
:100A4000C221515CC84070475C0000200010024089
:100A5000681D000810B512A385B00FCB8DE80F00FC
:100A600013A0144B006804905A68134802F00C015C
:100A700004290FD008290DD1C2F38344D2031DF8F5
:100A8000041009D55A6804ABC2F340429A5CB0FB2B
:100A9000F2F0484305B010BD08484843FAE70000AB
:100AA00002030405060708090A0B0C0D0E0F1010AF
:100AB000010200000010024000127A0000093D000F
:100AC0002DE9F84F04460078B94DC00748D0686852
:100AD000C0F38100012807D06868C0F381000228B4
:100AE00009D16868C00306D52868800338D56068D6
:100AF00000286FD034E06068B0F5803F0BD010B1B3
:100B0000B0F5A02F11D0286820F480302860286824
:100B100020F4802002E0286840F48030286060687B
:100B200088B1FFF713FE064609E0286840F48020EC
:100B30002860F0E7FFF70AFE801B642875D8286854
:100B40008003F7D50CE0FFF701FE064605E000BF85
:100B5000FFF7FCFD801B6428F0D828688003F7D4D9
:100B60002078944E80074FF001094FF000083BD5E4
:100B7000686810F00C0F07D06868C0F38100022885
:100B800009D16868C00306D42868800714D5206995
:100B900001281FD110E02069B0B1C6F80090FFF71E
:100BA000D5FD074605E000BFFFF7D0FDC01B0228BA
:100BB000C4D828688007F7D52868616920F0F80054
:100BC00040EAC10028600FE0C6F80080FFF7BEFDD4
:100BD000074606E0E9E000BFFFF7B8FDC01B0228AA
:100BE00023D828688007F7D4207800072CD57248CE
:100BF000A169D9B1C0F80090FFF7A8FD074604E04D
:100C0000FFF7A4FDC01B02280FD8686A8007F7D53C
:100C10006A484FF4FA510068B0FBF1F0009000BF51
:100C20000098411E0091FAD20EE080E0C0F80080EA
:100C3000FFF78CFD074604E0FFF788FDC01B022884
:100C400075D8686A8007F7D42078400760D5E869CE
:100C50000027C00008D4E86940F08050E861E869E6
:100C6000012700F08050009055480168C90513D451
:100C70000168834641F480710160FFF767FD824699
:100C800006E000BFFFF762FDA0EB0A0064284ED823
:100C9000DBF80000C005F5D5E06801280AD008B1EE
:100CA000052813D0286A20F001002862286A20F065
:100CB000040002E0286A40F001002862E06841F286
:100CC000883B98B1FFF742FD82460BE0286A40F06E
:100CD00004002862EEE700BFFFF738FDA0EB0A0131
:100CE00059455AD8286A8007F6D50CE0FFF72EFD43
:100CF000824605E0FFF72AFDA0EB0A0159454CD8D2
:100D0000286A8007F6D41FB1E86920F08050E861B6
:100D1000E06988B36968C1F38101022945D00228DE
:100D2000C6F8608004D0FFF711FD044638E034E0D7
:100D3000FFF70CFD074604E0FFF708FDC01B022883
:100D40002BD828688001F7D4206AB0F5803F05D100
:100D50006868A16820F4003008436860D4E908019D
:100D60000843696821F4741108436860C6F860900C
:100D7000FFF7ECFC044606E015E000BFFFF7E6FCD9
:100D8000001B022809D828688001F7D50BE000BFB6
:100D9000FFF7DCFC001B022802D90320BDE8F88F16
:100DA00028688001F4D40020F8E70120F6E700006D
:100DB0000010024000004242800442425C000020D9
:100DC000007000404FF0E0210428086903D020F0B3
:100DD00004000861704740F00400FAE7704710B55E
:100DE000401EB0F1807F01D3012010BD4FF0E02400
:100DF00060610F21601700F0D7FC0020A061072080
:100E00002061002010BD10B5FFF7E8FF10BD70474E
:100E1000704730B590F83C20012A20D0012280F89C
:100E20003C20022380F83D3003685C6824F07004A5
:100E30005C6003685C680D682C435C6003689C68B8
:100E400024F080049C6003689C6849680C439C60A3
:100E500080F83D20002180F83C10084630BD02207B
:100E600030BD10B5040003D094F83D0010B107E088
:100E7000012010BD002084F83C00204600F00CF852
:100E8000022084F83D00211D206800F011FD0120A2
:100E900084F83D00002010BD08B51E4A01681E48B8
:100EA00091420ED1816941F4006181618069012222
:100EB00000F40060009011461920FFF7C9FC1920CA
:100EC00013E0B1F1804F14D0144A914220D1C1698E
:100ED00041F00201C161C069012200F002000090EE
:100EE00011461D20FFF7B4FC1D20BDE80840FFF7A8
:100EF000A3BCC16941F00101C161C069012200F0D8
:100F00000100009000211C20FFF7A2FC1C20ECE750
:100F100008BD0000002C0140001002400004004009
:100F20000168CA6842F00102CA600068016841F0C5
:100F3000010101600020704770B5044690F83C0044
:100F4000012817D0012584F83C50022084F83D0088
:100F50002068826822F0770222F47F42826008686B
:100F6000502837D00DDC202859D005DC88B3102854
:100F700041D151E0022070BD302853D040283AD1F1
:100F80003FE060282ED070280BD0B0F5805F03D0F2
:100F9000B0F5005F2FD110E02068816821F00701D3
:100FA00015E0CB68D1E90121206800F0C7FC216879
:100FB000886840F0770088601DE0CB68D1E90121A6
:100FC000206800F0BBFC2068816841F480418160AA
:100FD00011E01EE0CA684968206800F0C1FC502199
:100FE000206806E0CA684968206800F0CAFC6021F1
:100FF000206800F0ADFC84F83D50002084F83C00EF
:1010000070BDCA684968206800F0AAFC40212068C9
:10101000EFE700212068ECE710212068E9E72021B4
:101020002068E6E730212068E3E7704770B50446A2
:10103000006801694FF00005C943890715D4C168EC
:10104000C943890711D4E91E016101202077206876
:1010500080698007204602D0FFF7E7FF04E000F038
:1010600098F8204600F096F8257720680169C94372
:10107000490717D4C168C943490713D46FF0040165
:101080000161022020772068806910F4407F2046AB
:1010900002D0FFF7CAFF04E000F07BF8204600F022
:1010A00079F8257720680169C943090716D4C16812
:1010B000C943090712D46FF00801016104202077A9
:1010C0002068C0698007204602D0FFF7AEFF04E029
:1010D00000F05FF8204600F05DF825772068016990
:1010E000C943C90617D4C168C943C90613D46FF0F0
:1010F00010010161082020772068C06910F4407F4A
:10110000204602D0FFF791FF04E000F042F82046AD
:1011100000F040F8257720680169C943C90708D164
:10112000C168C943C90704D1891E0161204600F086
:1011300033F820680169C943090609D4C168C94365
:10114000090605D46FF0800101612046FFF75FFEBC
:1011500020680169C943490609D4C168C9434906E1
:1011600005D46FF040010161204600F06DF8206861
:101170000169C94389060BD4C168C943890607D4EC
:101180006FF0200101612046BDE87040FFF740BECE
:1011900070BD7047704700002DE9F0410068264996
:1011A000884240D18415254D21462846FFF7C4FAD0
:1011B000D8B3002221462846FFF7C3FA204E002468
:1011C000DFF88080012506F14607318805FA04F032
:1011D00001420ED07188014237F814102AD04046DF
:1011E000FFF7AAFA20B3002237F814104046FFF7A1
:1011F000A8FA641C092CE8DB0520FFF79BF9002402
:10120000308805FA04F108420AD0708804FA04F123
:10121000084205D137F8141001224046FFF791FA31
:10122000641C092CECDBBDE8F081FFE70122C1E77B
:101230000122D9E70022D9E7002C01400008014033
:1012400000000020000C01407047704770B504009A
:1012500004D094F83900002510B106E0012070BDDB
:1012600084F83850204600F023F8242084F8390010
:101270002068C16821F40051C160204600F00EFCD6
:101280002068016921F4904101612068416921F0E1
:101290002A0141612068C16841F40051C160E563E1
:1012A000202084F8390084F83A00002070BD000046
:1012B0002DE9F04106460068294986B088424BD1A5
:1012C0002848816941F4804181618069264D00F49C
:1012D000804004904FF400700090022001900320A1
:1012E000039069462846FFF733F900242815CDE915
:1012F0000004694628460294FFF72AF91C4D1B4852
:101300004FF08008C5E90004C5E902482C614FF49C
:1013100000576C61C5E906472846FFF791F818B1F8
:10132000DE2114A000F0A5FC75636E620F48184D15
:10133000143801C51020A5E81101154845F81049D9
:101340006C61C5E90647FFF77BF818B1EE2109A0EB
:1013500000F08FFC35636E6206B0BDE8F0810000DE
:1013600000380140001002400008014058000240CF
:10137000600100202E2E2F5372632F73746D333251
:10138000663178785F68616C5F6D73702E63000002
:10139000A4010020F8B5044690F83A0020283CD17A
:1013A000C1B3BAB394F83800012836D0012084F8CC
:1013B0003800A162A2850025E563222084F83A0066
:1013C000636B17489862636B1648D862636B164864
:1013D0001863606B134645630846666B21680246D6
:1013E0003046091DFFF76EF82068016841680091DA
:1013F00084F83850C16841F48071C1602068416947
:1014000041F0010141612068416941F040014161C1
:101410000020F8BDFFE70120FBE70220F9E700000C
:10142000F11900082D1A0008A7190008F0B5244C7E
:1014300085B0A079412807D005B02146BDE8F0402D
:1014400007222048FFF7A6BF1D486E46001F011F58
:1014500005880D8042884A8021880180618841800A
:101460000D2101A8FEF787FE1748002131220068F0
:10147000009001205FF0300300FA01F73D4201D0F7
:10148000725400E07354491C1029F5DB0A208DF8D2
:1014900010004FF03F33112269460A4800F017F858
:1014A0000849A088C0390968C8620648FFF7CEFE1F
:1014B000072203490348FFF76DFF05B0F0BD0000A8
:1014C0000800002020010020541D000870472DE96D
:1014D000F843044690F839001F4616460D4620286A
:1014E00050D1A5B19EB194F8380001284AD001200E
:1014F00084F838004FF00008C4F83C80212084F8BC
:101500003900FFF723F9A6848146E68426E001200E
:10151000BDE8F883E08C401EE084A0684B46B0F53F
:10152000805F4FF000024FF080012046009703D00B
:1015300000F06CFBE8B90DE000F068FBC8B9288842
:101540002168C0F308004860206908B16D1C05E0FF
:10155000AD1C03E0216815F8010B4860E08C002801
:10156000D8D14B46002240212046009700F04EFB88
:1015700008B10320CCE7202084F8390084F83880B3
:101580000020C5E70220C3E770B5044690F8390093
:10159000202830D169B362B394F8380001282AD0EA
:1015A000012084F838002162A284E2840025E563EA
:1015B000212084F83900236B10489862236B10486F
:1015C000D862236B0F481863206B13464563266867
:1015D000206B321DFEF776FF21686FF04000086037
:1015E00084F838502068416941F080014161002051
:1015F00070BD012070BD022070BD0000371A0008C8
:10160000651A0008A719000870477047FEE7000038
:101610002DE9F0411E4886B0816941F020018161C9
:10162000816901F020010491816941F00801816123
:10163000816901F008010491816941F0040181612F
:101640008069144F00F0040040F6F8740490012201
:1016500021463846FFF775F80122DFF83C80160274
:1016600031464046FFF76DF8009401240225694693
:10167000384603950194FEF76BFFCDE90064694697
:1016800040460395FEF764FF06B0BDE8F081000018
:1016900000100240000C01400008014010B5154840
:1016A00086B01349016041F61F410024C0E90114CE
:1016B00042F20F71C0E903148021C0E90541FFF730
:1016C000D0FB00B1FEE74FF4805000906946094816
:1016D000FFF732FC00B1FEE7049404A90548059425
:1016E000FFF797FB002800D0FEE706B010BD000012
:1016F000002C01406000002010B5144886B04FF067
:101700008041016041F61F410024C0E9011440F20C
:10171000CF71C0E9031480218161FFF7A2FB00B102
:10172000FEE74FF48050009069460848FFF704FC3C
:1017300000B1FEE7049404A904480594FFF769FB8F
:10174000002800D0FEE706B010BD0000A000002079
:1017500010B5134886B01149016047210024C0E943
:1017600001140921C0E903148461FFF77AFB00B179
:10177000FEE74FF48050009069460948FFF7DCFB14
:1017800000B1FEE7049404A905480594FFF741FB66
:10179000002800D0FEE706B010BD000000040040A5
:1017A000E0000020FEE770470907090E002806DA6E
:1017B00000F00F0000F1E02080F8141D704700F1E8
:1017C000E02080F8001470477047704710B5FEF7AE
:1017D000C3FFBDE81040FFF716BB30B58FB0012145
:1017E0000804CDE900100024029402250491CDE9FB
:1017F00007504FF4E01009906846FFF761F900B117
:10180000FEE70F20CDE90A054FF48060CDE90C40DA
:1018100002210AA80E94FFF74DF800B1FEE7FFF78A
:10182000F3F84FF47A71B0FBF1F0FFF7D8FA042027
:10183000FFF7C8FA00221146501EFFF709F80FB053
:1018400030BD00000D48016841F0010101604168B0
:101850000B4A1140416001680A4A11400160016869
:1018600021F480210160416821F4FE0141604FF4C0
:101870001F0181600449C0030860704700100240E6
:101880000000FFF8FFFFF6FE08ED00E00148FFF75B
:10189000CDBB0000600000200148FFF7C7BB00007F
:1018A000A00000200148FFF7C1BB0000E0000020BD
:1018B000F0B502681C4B1D4D1D4E1E4F1E4C4FF0C7
:1018C000804C984209D0A04207D0604505D0A8427C
:1018D00003D0B04201D0B84204D122F0700E4A6861
:1018E00042EA0E02984209D0A04207D0604505D0D6
:1018F000A84203D0B04201D0B84203D122F44075CF
:10190000CA682A4322F080054A692A4302608A682D
:10191000C2620A688262984201D0A04201D109697C
:10192000016301214161F0BD002C01400004004031
:1019300000080040000C00400034014010B58468ED
:1019400042EA032224F47F440A432243826010BD0A
:10195000826822F070020A4342F0070181607047FA
:1019600010B5036A046A24F001040462846924F057
:10197000F00444EA021423F00A020A43846102627A
:1019800010BD10B5036A23F0100303628369046A73
:1019900023F4704343EA023224F0A00343EA011126
:1019A0008261016210BD70B5446A2068406994F894
:1019B0003910C0F3C0100025212904D118B1E584E5
:1019C000204600F062F82068406994F83A10C0F3AD
:1019D0008010222904D118B1E585204600F047F88F
:1019E000E06B40F01000E0632046FFF72EFC70BD76
:1019F00010B50146406A09680968890613D40021B8
:101A0000C1850168CA6822F48072CA6001684A69A7
:101A100022F001024A6101684A6922F040024A61EB
:101A2000202180F83A10FFF701FD10BD10B5406A83
:101A3000FFF74CFD10BD10B50146406A0968096802
:101A400089060CD40021C18401684A6922F0800211
:101A50004A610068C16841F04001C16010BDFFF7F4
:101A6000D3FD10BD10B5406AFFF7CFFD10BD016872
:101A7000CA6822F49072CA6001684A6922F00102C1
:101A80004A61202180F83A1070470168CA6822F044
:101A9000C002CA60202180F8391070472DE9F0415A
:101AA000044600680169E26821F440511143016174
:101AB0002169A0680843616908432168CA6841F246
:101AC0000C639A430243CA6020684169A26921F409
:101AD0004071114341614C49206864253226884297
:101AE0003CD1FEF7A7FF00EBC00101EB00106168DD
:101AF0008900B0FBF1F7FEF79DFF00EBC00101EBA1
:101B000000106168B0468900B0FBF1F0B0FBF5F061
:101B10006FF01801484307EB800106EB0110B0FBA2
:101B2000F5F000F0F006FEF785FF00EBC00101EBD9
:101B3000001061688900B0FBF1F0B0FBF5F006EB36
:101B40000016FEF777FF00EBC00101EB00106168A3
:101B50008900B0FBF1F7FEF76DFF3BE0FEF75AFF9F
:101B600000EBC00101EB001061688900B0FBF1F7E8
:101B7000FEF750FF00EBC00101EB00106168B046BA
:101B80008900B0FBF1F0B0FBF5F06FF018014843AD
:101B900007EB800106EB0110B0FBF5F000F0F0065A
:101BA000FEF738FF00EBC00101EB0010616889000F
:101BB000B0FBF1F0B0FBF5F006EB0016FEF72AFFE4
:101BC00000EBC00101EB001061688900B0FBF1F788
:101BD000FEF720FF00EBC00101EB001061688900F7
:101BE000B0FBF1F0B0FBF5F06FF01801484307EBE4
:101BF000800108EB0110B0FBF5F0216800F00F0048
:101C000030448860BDE8F081003801402DE9F041A2
:101C1000984617460E460446069D1DE0681C1BD0DC
:101C20002DB1FEF793FDA0EB0800A84214D920685F
:101C3000C16821F4D071C1602068416921F00101BF
:101C40004161202084F8390084F83A00002084F8AB
:101C500038000320BDE8F0812068006836EA000003
:101C600004D00020B842D9D00020F3E70120F9E7E2
:101C7000FEE7FEE702E008C8121F08C1002AFAD1F9
:101C800070477047002001E001C1121F002AFBD1FC
:101C90007047000008B5FEF767FDFFF79EFDFFF7F0
:101CA000B7FC2748416941F00101416140690022C8
:101CB00000F00100009011460E20FEF7C9FD0E2035
:101CC000FEF7BAFD002211460F20FEF7C1FD0F20DE
:101CD000FEF7B2FD1C481B490C2201604FF4E131B4
:101CE000416000218160C160C0E904128161C1616D
:101CF000FFF7ACFA00B1FEE7FFF7FEFCFFF7CEFC02
:101D0000FFF726FD114D002455F82400FFF708F9D0
:101D100000B1FEE7641C032CF6DB0C492A220C31CF
:101D20000948FFF731FC01224FF6FF710848FEF722
:101D300008FD0649072208390348FFF72BFBFEE799
:101D40000010024000380140200100201000002057
:101D5000000C014030000000000000000000000006
:101D60000102030406070809000000000102030441
:101D7000901D00080000002060000000741C000896
:101D8000F01D00086000002088050000841C000889
:101D900000000000000000003030303030304100E2
:101DA00060000020A0000020E00000200D0A2A2A88
:101DB0002A2A2A2A5541525420636F6D6D75636932
:101DC00074696F6E207573696E672049542A2A2AD8
:101DD0002A2A2A0D0A000800100020004000800076
:101DE00000010002000400080000000000A24A04F4
:0400000508000131BD
:00000001FF
